:100000000C942A000C94FB010C9430020C946502B1
:100010000C9447000C9447000C9447000C94470044
:100020000C9447000C9447000C9447000C949200E9
:100030000C9447000C9447000C9447000C94470024
:100040000C9447000C9447000C9447000C94470014
:100050000C94470011241FBECFE5D8E0DEBFCDBF12
:1000600010E0A0E6B0E0E8E4F3E202C005900D92F3
:10007000AC37B107D9F720E0ACE7B0E001C01D9282
:10008000AD38B207E1F70E94C20F0C94A2110C9494
:100090000000CF93DF93CDB7DEB783E590E023E098
:1000A000FC01208382E590E02CE2FC01208389E5BD
:1000B00090E0FC01208189E590E02160FC01208333
:1000C0000000DF91CF910895CF93DF931F92CDB7BA
:1000D000DEB7898382E590E02981FC012083898154
:1000E000882F90E0909361008093600000000F9053
:1000F000DF91CF910895CF93DF9300D0CDB7DEB7D6
:100100009A83898389819A81892B31F089819A81A7
:1001100090937D0080937C0000000F900F90DF9102
:10012000CF9108951F920F920FB60F9211242F9323
:100130003F934F935F936F937F938F939F93AF936F
:10014000BF93EF93FF93CF93DF93CDB7DEB780914B
:100150007E0090917F00A0918000B0918100019677
:10016000A11DB11D80937E0090937F00A09380001D
:10017000B093810080917E0090917F00A0918000DB
:10018000B0918100C197A105B105E1F480917C0097
:1001900090917D00892B31F080917C0090917D00C1
:1001A000FC01099510927E0010927F001092800051
:1001B00010928100209160003091610082E590E012
:1001C000FC0120830000DF91CF91FF91EF91BF915F
:1001D000AF919F918F917F916F915F914F913F91DF
:1001E0002F910F900FBE0F901F901895CF93DF9314
:1001F000CDB7DEB78FE590E0FC0120818FE590E080
:100200002068FC0120830000DF91CF910895CF93F7
:10021000DF93CDB7DEB78FE590E0FC0120818FE55D
:1002200090E02F77FC0120830000DF91CF910895AB
:10023000CF93DF9300D0CDB7DEB789836A838981FE
:10024000882371F485E590E0FC018081982F9C7FE4
:100250008A81292F282B85E590E0FC01208331C07D
:100260008981813099F485E590E0FC018081282F17
:10027000237F8A81882F90E0880F991F880F991F0C
:10028000282B85E590E0FC0120831BC0898182300A
:10029000C1F485E590E0FC018081482F4F7B8A8185
:1002A000882F90E0382F36953695282F2295220FEB
:1002B000220F207C822F242F282B84E590E0FC0144
:1002C000208300000F900F90DF91CF910895CF937E
:1002D000DF931F92CDB7DEB789838981882351F4DC
:1002E0008BE590E0FC0120818BE590E02064FC012F
:1002F000208319C08981813051F48BE590E0FC01A5
:1003000020818BE590E02068FC0120830CC089816E
:10031000823049F48BE590E0FC0120818BE590E090
:100320002062FC01208300000F90DF91CF9108959F
:10033000CF93DF931F92CDB7DEB78983898188235E
:1003400051F48BE590E0FC0120818BE590E02F7B60
:10035000FC01208319C08981813051F48BE590E044
:10036000FC0120818BE590E02F77FC0120830CC0FD
:100370008981823049F48BE590E0FC0120818BE596
:1003800090E02F7DFC01208300000F90DF91CF9142
:100390000895CF93DF9300D01F92CDB7DEB7898346
:1003A0007B836A838A819B81892BF1F089818823F1
:1003B00039F48A819B81909383008093820015C0D9
:1003C0008981813039F48A819B8190938500809363
:1003D00084000BC08981823041F48A819B81909393
:1003E00087008093860001C000000F900F900F904F
:1003F000DF91CF9108951F920F920FB60F921124A3
:100400002F933F934F935F936F937F938F939F931C
:10041000AF93BF93EF93FF93CF93DF93CDB7DEB747
:100420008091820090918300892B31F0809182002D
:1004300090918300FC0109950000DF91CF91FF911D
:10044000EF91BF91AF919F918F917F916F915F914C
:100450004F913F912F910F900FBE0F901F901895C5
:100460001F920F920FB60F9211242F933F934F9329
:100470005F936F937F938F939F93AF93BF93EF930C
:10048000FF93CF93DF93CDB7DEB780918400909137
:100490008500892B31F08091840090918500FC01CA
:1004A00009950000DF91CF91FF91EF91BF91AF913E
:1004B0009F918F917F916F915F914F913F912F917C
:1004C0000F900FBE0F901F9018951F920F920FB6AE
:1004D0000F9211242F933F934F935F936F937F93CA
:1004E0008F939F93AF93BF93EF93FF93CF93DF933C
:1004F000CDB7DEB78091860090918700892B31F0CF
:100500008091860090918700FC0109950000DF91A1
:10051000CF91FF91EF91BF91AF919F918F917F917B
:100520006F915F914F913F912F910F900FBE0F9060
:100530001F901895CF93DF9300D01F92CDB7DEB7F1
:1005400089836A834B838A81883008F0E2C08B817B
:10055000813009F06BC08981882F90E0823091054D
:1005600019F1833091051CF4019741F0D2C083301A
:10057000910581F1049709F443C0CBC08AE390E070
:10058000FC018081482F8A81282F30E081E090E0B3
:1005900002C0880F991F2A95E2F7242F282B8AE39F
:1005A00090E0FC012083B5C087E390E0FC018081EE
:1005B000482F8A81282F30E081E090E002C0880F28
:1005C000991F2A95E2F7242F282B87E390E0FC015E
:1005D00020839FC084E390E0FC018081482F8A81C2
:1005E000282F30E081E090E002C0880F991F2A9503
:1005F000E2F7242F282B84E390E0FC01208389C0BC
:1006000081E390E0FC018081482F8A81282F30E02F
:1006100081E090E002C0880F991F2A95E2F7242F0D
:10062000282B81E390E0FC01208373C08B81882319
:1006300009F06FC08981882F90E08230910521F107
:10064000833091051CF4019741F063C0833091051C
:1006500091F1049709F446C05CC08AE390E0FC0184
:100660008081482F8A81282F30E081E090E002C00D
:10067000880F991F2A95E2F78095242F28238AE373
:1006800090E0FC01208345C087E390E0FC0180817D
:10069000482F8A81282F30E081E090E002C0880F47
:1006A000991F2A95E2F78095242F282387E390E06D
:1006B000FC0120832EC084E390E0FC018081482F60
:1006C0008A81282F30E081E090E002C0880F991FD6
:1006D0002A95E2F78095242F282384E390E0FC01FB
:1006E000208317C081E390E0FC018081482F8A813C
:1006F000282F30E081E090E002C0880F991F2A95F2
:10070000E2F78095242F282381E390E0FC012083E9
:10071000000000000F900F900F90DF91CF9108958F
:10072000CF93DF9300D0CDB7DEB789836A83898109
:10073000882F90E08230910591F0833091051CF470
:10074000019739F01EC08330910579F0049799F034
:1007500018C08AE390E02A81FC01208312C087E35D
:1007600090E02A81FC0120830CC084E390E02A8180
:10077000FC01208306C081E390E02A81FC012083F4
:10078000000000000F900F90DF91CF910895CF935C
:10079000DF9300D0CDB7DEB789836A838981882F44
:1007A00090E08230910591F0833091051CF401971F
:1007B00039F01EC08330910579F0049799F018C084
:1007C0008BE390E02A81FC01208312C088E390E053
:1007D0002A81FC0120830CC085E390E02A81FC0182
:1007E000208306C082E390E02A81FC012083000080
:1007F00000000F900F90DF91CF910895CF93DF937A
:1008000000D01F92CDB7DEB789836A834B838A817C
:10081000883008F0E3C08B81882309F070C089819B
:10082000882F90E08230910521F1833091051CF4EE
:10083000019741F0D3C08330910591F1049709F4F9
:1008400046C0CCC08BE390E0FC018081482F8A81B8
:10085000282F30E081E090E002C0880F991F2A9590
:10086000E2F78095242F28238BE390E0FC0120837E
:10087000B5C088E390E0FC018081482F8A81282F51
:1008800030E081E090E002C0880F991F2A95E2F7DE
:100890008095242F282388E390E0FC0120839EC0CC
:1008A00085E390E0FC018081482F8A81282F30E089
:1008B00081E090E002C0880F991F2A95E2F78095A9
:1008C000242F282385E390E0FC01208387C082E366
:1008D00090E0FC018081482F8A81282F30E081E060
:1008E00090E002C0880F991F2A95E2F78095242F87
:1008F000282382E390E0FC01208300006FC08B81FD
:10090000813009F06BC08981882F90E08230910599
:1009100019F1833091051CF4019741F05FC08330D9
:10092000910581F1049709F443C058C08BE390E02E
:10093000FC018081482F8A81282F30E081E090E0FF
:1009400002C0880F991F2A95E2F7242F282B8BE3EA
:1009500090E0FC01208342C088E390E0FC018081AC
:10096000482F8A81282F30E081E090E002C0880F74
:10097000991F2A95E2F7242F282B88E390E0FC01A9
:1009800020832CC085E390E0FC018081482F8A8180
:10099000282F30E081E090E002C0880F991F2A954F
:1009A000E2F7242F282B85E390E0FC01208316C07A
:1009B00082E390E0FC018081482F8A81282F30E07B
:1009C00081E090E002C0880F991F2A95E2F7242F5A
:1009D000282B82E390E0FC012083000000000F90B0
:1009E0000F900F90DF91CF910895CF93DF9300D0B8
:1009F00000D0CDB7DEB789836A835C834B838B815C
:100A00009C81892B09F46BC08A81883008F067C00B
:100A10008981882F90E08230910511F18330910512
:100A20001CF4019741F05BC08330910571F104978C
:100A300009F440C054C089E390E0FC018081882F14
:100A400090E02A81222F30E002C0959587952A9563
:100A5000E2F7282F21708B819C81FC0120833FC00D
:100A600086E390E0FC018081882F90E02A81222F8C
:100A700030E002C0959587952A95E2F7282F2170DE
:100A80008B819C81FC0120832AC083E390E0FC01E0
:100A90008081882F90E02A81222F30E002C0959536
:100AA00087952A95E2F7282F21708B819C81FC0184
:100AB000208315C080E390E0FC018081882F90E0C6
:100AC0002A81222F30E002C0959587952A95E2F77A
:100AD000282F21708B819C81FC0120830000000065
:100AE0000F900F900F900F90DF91CF910895CF93BB
:100AF000DF9300D01F92CDB7DEB789837B836A83F3
:100B00008A819B81892BB1F18981882F90E0823085
:100B10009105A9F0833091051CF4019739F02AC0A2
:100B200083309105A9F00497E1F024C089E390E0B7
:100B3000FC0120818A819B81FC0120831BC086E30C
:100B400090E0FC0120818A819B81FC01208312C0FE
:100B500083E390E0FC0120818A819B81FC0120835A
:100B600009C080E390E0FC0120818A819B81FC0127
:100B70002083000000000F900F900F90DF91CF9125
:100B80000895CF93DF9300D0CDB7DEB789836A8312
:100B90008A81883008F06BC08981882F90E082308C
:100BA000910519F1833091051CF4019741F05FC064
:100BB0008330910581F1049709F443C058C08BE359
:100BC00090E0FC018081482F8A81282F30E081E06D
:100BD00090E002C0880F991F2A95E2F7242F28275A
:100BE0008BE390E0FC01208342C088E390E0FC01AD
:100BF0008081482F8A81282F30E081E090E002C078
:100C0000880F991F2A95E2F7242F282788E390E080
:100C1000FC0120832CC085E390E0FC018081482FFB
:100C20008A81282F30E081E090E002C0880F991F70
:100C30002A95E2F7242F282785E390E0FC01208302
:100C400016C082E390E0FC018081482F8A81282F22
:100C500030E081E090E002C0880F991F2A95E2F70A
:100C6000242F282782E390E0FC012083000000006D
:100C70000F900F90DF91CF910895CF93DF931F9244
:100C8000CDB7DEB789838981882F90E082309105C6
:100C9000B1F0833091051CF4019739F02EC08330F8
:100CA0009105B9F00497F9F028C08BE390E0FC01BE
:100CB00020818BE390E02095FC0120831EC088E317
:100CC00090E0FC01208188E390E02095FC012083E6
:100CD00014C085E390E0FC01208185E390E020953D
:100CE000FC0120830AC082E390E0FC01208182E3C2
:100CF00090E02095FC012083000000000F90DF9120
:100D0000CF910895CF93DF9300D01F92CDB7DEB778
:100D100089836A834B834B816A8189810E94FE03A8
:100D200000000F900F900F90DF91CF910895CF9317
:100D3000DF93CDB7DEB7809188008823B9F487E2CE
:100D400090E020EEFC01208386E290E023E8FC01A5
:100D5000208380E590E0FC01208180E590E02F7108
:100D6000FC01208381E08093880001C00000DF91B6
:100D7000CF910895CF93DF93CDB7DEB70000DF9119
:100D8000CF910895CF93DF93CDB7DEB786E290E0A1
:100D9000FC01208186E290E02068FC0120830000B5
:100DA000DF91CF910895CF93DF93CDB7DEB786E281
:100DB00090E0FC01208186E290E02F77FC01208307
:100DC0000000DF91CF910895CF93DF93CDB7DEB7C9
:100DD00086E290E0FC01208186E290E02860FC0140
:100DE00020830000DF91CF910895CF93DF93CDB79B
:100DF000DEB786E290E0FC01208186E290E0277F6A
:100E0000FC0120830000DF91CF910895CF93DF9301
:100E10001F92CDB7DEB7898387E290E0FC01808125
:100E2000982F907E89818F71292F282B87E290E05F
:100E3000FC01208300000F90DF91CF910895CF93A4
:100E4000DF93CDB7DEB72B970FB6F894DEBF0FBE9A
:100E5000CDBF8D837F836E83288739874A875B87E1
:100E600019821A821B821C828E819F81892B11F428
:100E700081E036C08D81883010F082E031C08091F1
:100E80008800882311F483E02BC08D810E9406071F
:100E900086E290E0FC01208186E290E02064FC0183
:100EA000208382E080938800000086E290E0FC01CD
:100EB000808186E290E0FC01208186E290E0206162
:100EC000FC01208384E290E0FC01208131818E814D
:100ED0009F81FC013183208381E08093880080E042
:100EE0002B960FB6F894DEBF0FBECDBFDF91CF912A
:100EF0000895CF93DF93CDB7DEB780918800DF915F
:100F0000CF910895CF93DF931F92CDB7DEB789833A
:100F10008981813029F46FEF81E00E94900307C03E
:100F20008981823021F46FEF83E00E9490030000FA
:100F30000F90DF91CF910895CF93DF9300D0CDB77D
:100F4000DEB789836A838A818A30E8F489818130B7
:100F500061F48A81882F90E08E599F4FFC01808137
:100F6000682F81E00E94C7030EC08981823059F446
:100F70008A81882F90E08E599F4FFC018081682FD5
:100F800083E00E94C70300000F900F90DF91CF9184
:100F90000895CF93DF9300D0CDB7DEB789836A83FE
:100FA00041E06A8189810E949A0200000F900F90AF
:100FB000DF91CF910895CF93DF9300D01F92CDB7EB
:100FC000DEB789836A834B8340E063E082E00E945E
:100FD000FE038B81813031F441E06A8189810E9476
:100FE000FE0308C08B81882329F440E06A8189814F
:100FF0000E94FE0341E063E082E00E94FE030000E5
:101000000F900F900F90DF91CF910895CF93DF93C2
:1010100000D01F92CDB7DEB789836A834B838B8163
:10102000813031F440E06A8189810E94FE0308C06A
:101030008B81882329F441E06A8189810E94FE0323
:1010400000000F900F900F90DF91CF910895CF93F4
:10105000DF9300D0CDB7DEB789836A836A81898147
:101060000E94C10500000F900F90DF91CF9108956D
:10107000CF93DF93CDB7DEB7E8970FB6F894DEBF16
:101080000FBECDBF41E060E081E00E949A0241E0E6
:1010900061E081E00E949A0241E062E081E00E940A
:1010A0009A026FEF83E00E94900380E090E0ACE052
:1010B000B2E48BA79CA7ADA7BEA720E030E04AEF23
:1010C00054E46BA57CA58DA59EA50E940D11DC01A5
:1010D000CB018FA798ABA9ABBAAB20E030E040E8DA
:1010E0005FE36FA578A989A99AA90E948710882330
:1010F0002CF481E090E09CAB8BAB3FC020E03FEF55
:101100004FE757E46FA578A989A99AA90E94081109
:1011100018164CF520E030E040E251E46BA57CA5C8
:101120008DA59EA50E940D11DC01CB01BC01CD0156
:101130000E948C10DC01CB019CAB8BAB0FC088EC08
:1011400090E09EAB8DAB8DA99EA90197F1F79EAB68
:101150008DAB8BA99CA901979CAB8BAB8BA99CA950
:10116000892B69F714C06FA578A989A99AA90E944B
:101170008C10DC01CB019CAB8BAB8BA99CA998AFED
:101180008FAB8FA998AD0197F1F798AF8FAB88E33C
:101190000E94330A80E090E0A0E8BFE38D8F9E8F2D
:1011A000AF8FB8A320E030E04AEF54E46D8D7E8D20
:1011B0008F8D98A10E940D11DC01CB0189A39AA308
:1011C000ABA3BCA320E030E040E85FE369A17AA1D3
:1011D0008BA19CA10E94871088232CF481E090E0D1
:1011E0009EA38DA33FC020E03FEF4FE757E469A1E6
:1011F0007AA18BA19CA10E94081118164CF520E041
:1012000030E040E251E46D8D7E8D8F8D98A10E947B
:101210000D11DC01CB01BC01CD010E948C10DC0161
:10122000CB019EA38DA30FC088EC90E098A78FA35D
:101230008FA198A50197F1F798A78FA38DA19EA1E3
:1012400001979EA38DA38DA19EA1892B69F714C040
:1012500069A17AA18BA19CA10E948C10DC01CB0119
:101260009EA38DA38DA19EA19AA789A789A59AA5C2
:101270000197F1F79AA789A78CE00E94330A80E0D2
:1012800090E0A0E8BFE38F87988BA98BBA8B20E012
:1012900030E04AEF54E46F85788989899A890E9401
:1012A0000D11DC01CB018B8B9C8BAD8BBE8B20E0B9
:1012B00030E040E85FE36B897C898D899E890E94DC
:1012C000871088232CF481E090E0988F8F8B3FC0AB
:1012D00020E03FEF4FE757E46B897C898D899E8939
:1012E0000E94081118164CF520E030E040E251E46D
:1012F0006F85788989899A890E940D11DC01CB015B
:10130000BC01CD010E948C10DC01CB01988F8F8B2A
:101310000FC088EC90E09A8F898F898D9A8D019704
:10132000F1F79A8F898F8F89988D0197988F8F8B7E
:101330008F89988D892B69F714C06B897C898D8979
:101340009E890E948C10DC01CB01988F8F8B8F8936
:10135000988D9C8F8B8F8B8D9C8D0197F1F79C8F37
:101360008B8F81E00E94330A80E090E0A0E0B0E43F
:1013700089839A83AB83BC8320E030E04AEF54E456
:1013800069817A818B819C810E940D11DC01CB01E6
:101390008D839E83AF83B88720E030E040E85FE331
:1013A0006D817E818F8198850E94871088232CF41F
:1013B00081E090E09A8789873FC020E03FEF4FE7C8
:1013C00057E46D817E818F8198850E9408111816DF
:1013D0004CF520E030E040E251E469817A818B8174
:1013E0009C810E940D11DC01CB01BC01CD010E944A
:1013F0008C10DC01CB019A8789870FC088EC90E0C4
:101400009C878B878B859C850197F1F79C878B87C1
:1014100089859A8501979A87898789859A85892BF5
:1014200069F714C06D817E818F8198850E948C1030
:10143000DC01CB019A87898789859A859E878D876C
:101440008D859E850197F1F79E878D8786E00E94A6
:10145000330A0000E8960FB6F894DEBF0FBECDBF8A
:10146000DF91CF910895CF93DF93CDB7DEB72F975C
:101470000FB6F894DEBF0FBECDBF8F8740E060E0AF
:1014800081E00E94FE0340E061E081E00E94FE03F3
:101490006F8583E00E94C70341E062E081E00E9423
:1014A000FE0380E090E0A0E8BFE389839A83AB83EA
:1014B000BC8320E030E04AEF54E469817A818B817B
:1014C0009C810E940D11DC01CB018D839E83AF8333
:1014D000B88720E030E040E85FE36D817E818F8156
:1014E00098850E94871088232CF481E090E09A87E9
:1014F00089873FC020E03FEF4FE757E46D817E8151
:101500008F8198850E94081118164CF520E030E074
:1015100040E251E469817A818B819C810E940D11A6
:10152000DC01CB01BC01CD010E948C10DC01CB01A0
:101530009A8789870FC088EC90E09C878B878B8582
:101540009C850197F1F79C878B8789859A85019700
:101550009A87898789859A85892B69F714C06D8157
:101560007E818F8198850E948C10DC01CB019A8747
:10157000898789859A859E878D878D859E85019728
:10158000F1F79E878D8740E062E081E00E94FE03D4
:1015900000002F960FB6F894DEBF0FBECDBFDF91CF
:1015A000CF910895CF93DF93CDB7DEB72F970FB6C6
:1015B000F894DEBF0FBECDBF8F8741E060E081E0D1
:1015C0000E94FE0340E061E081E00E94FE036F851F
:1015D00083E00E94C70341E062E081E00E94FE03D5
:1015E00080E090E0A0E8BFE389839A83AB83BC836B
:1015F00020E030E04AEF54E469817A818B819C815C
:101600000E940D11DC01CB018D839E83AF83B887CF
:1016100020E030E040E85FE36D817E818F81988536
:101620000E94871088232CF481E090E09A878987B4
:101630003FC020E03FEF4FE757E46D817E818F810F
:1016400098850E94081118164CF520E030E040E221
:1016500051E469817A818B819C810E940D11DC01AA
:10166000CB01BC01CD010E948C10DC01CB019A871B
:1016700089870FC088EC90E09C878B878B859C8541
:101680000197F1F79C878B8789859A8501979A87BF
:10169000898789859A85892B69F714C06D817E8138
:1016A0008F8198850E948C10DC01CB019A878987F5
:1016B00089859A859E878D878D859E850197F1F70F
:1016C0009E878D8740E062E081E00E94FE0300007B
:1016D0002F960FB6F894DEBF0FBECDBFDF91CF912E
:1016E0000895CF93DF9300D01F92CDB7DEB79B83D1
:1016F0008A838A819B81892BD9F019820EC08981C6
:10170000882F90E02A813B81820F931FFC0180810A
:101710000E94D20A89818F5F89838981882F90E016
:101720002A813B81820F931FFC018081882339F736
:1017300000000F900F900F90DF91CF910895CF93FD
:10174000DF9300D01F92CDB7DEB78A836B831982F7
:101750008A81882F90E0009719F0019721F007C047
:101760008B81898304C08B81805C8983000089819F
:1017700080680E94330A00000F900F900F90DF9155
:10178000CF910895CF93DF9300D000D01F92CDB7B3
:10179000DEB79C838B836D838B819C81892B29F1A0
:1017A0008D81893010F58D81880F880F880F8A838D
:1017B0008A8180640E94330A198219820EC089814D
:1017C000882F90E02B813C81820F931FFC01808148
:1017D0000E94D20A89818F5F89838981883078F35A
:1017E00060E080E00E949F0B01C000000F900F900E
:1017F0000F900F900F90DF91CF910895CF93DF93CB
:10180000CDB7DEB760970FB6F894DEBF0FBECDBF81
:101810006D877E878F87988B2AE0CE010396FC0127
:10182000322F11923A95E9F719821A828D859E8599
:10183000AF85B889892B8A2B8B2B21F480E30E94FA
:10184000D20A69C08D859E85AF85B889BB230CF00F
:1018500043C08DE20E94D20A8D859E85AF85B889EE
:10186000B095A095909581959F4FAF4FBF4F8D87B5
:101870009E87AF87B88B30C08D859E85AF85B88930
:101880002AE030E040E050E0BC01CD010E9446106B
:10189000DC01CB01282F8981882F90E040E3420FA3
:1018A0009E012D5F3F4F820F931FFC0140838D856A
:1018B0009E85AF85B8892AE030E040E050E0BC0169
:1018C000CD010E944610DA01C9018D879E87AF873E
:1018D000B88B89818F5F89838D859E85AF85B88917
:1018E000892B8A2B8B2B41F6898181508A8310C0EA
:1018F0008A81082E000C990B9E012D5F3F4F820FAD
:10190000931FFC0180810E94D20A8A8181508A83C0
:101910008A8188236CF760960FB6F894DEBF0FBEFD
:10192000CDBFDF91CF910895CF93DF93CDB7DEB7D1
:1019300062970FB6F894DEBF0FBECDBF82E08B83F7
:1019400082E08C8382E08D8382E08E831F8281E03F
:10195000888782E0898783E08A8782E08B8782E0BC
:101960008C8782E08D8782E08E8784E08F8785E098
:10197000888B86E0898B87E08A8B198233C08981C6
:10198000882F90E09E01295F3F4F820F931FFC013B
:1019900050818981882F90E09E012D5F3F4F820FFB
:1019A000931FFC01808140E0652F0E949A0289818B
:1019B000882F90E09E01295F3F4F820F931FFC010B
:1019C00050818981882F90E09E012D5F3F4F820FCB
:1019D000931FFC01808141E0652F0E94820689816E
:1019E0008F5F89838981843050F21A8233C08A8163
:1019F000882F90E09E01215F3F4F820F931FFC01D3
:101A000050818A81882F90E09E01255F3F4F820F91
:101A1000931FFC01808141E0652F0E949A028A8118
:101A2000882F90E09E01215F3F4F820F931FFC01A2
:101A300050818A81882F90E09E01255F3F4F820F61
:101A4000931FFC01808141E0652F0E94FE038A8183
:101A50008F5F8A838A81843050F2000062960FB6CD
:101A6000F894DEBF0FBECDBFDF91CF910895CF9325
:101A7000DF93CDB7DEB7E3970FB6F894DEBF0FBEA6
:101A8000CDBF9BAB8AAB8AA99BA9892B09F450C116
:101A900080E1ECE6F0E0DE01519601900D928A952E
:101AA000E1F782E089A382E08AA382E08BA382E04F
:101AB0008CA31DA281E08EA382E08FA383E088A780
:101AC00082E089A782E08AA782E08BA782E08CA7C8
:101AD00084E08DA785E08EA786E08FA787E088AB9E
:101AE0008AA99BA92FEFFC01208381E089AB198291
:101AF0001AC18981882F90E09E01235D3F4F820F9C
:101B0000931FFC0150818981882F90E09E01275D01
:101B10003F4F820F931FFC01808140E0652F0E94A0
:101B2000FE031A82E1C08A81882F90E09E012B5D1E
:101B30003F4F820F931FFC0160818A81882F90E0C4
:101B40009E012F5D3F4F820F931FFC012081CE012C
:101B5000C196AC01822F0E94F50489A9882309F05F
:101B6000C0C080E090E0A8ECB2E48B839C83AD839E
:101B7000BE8320E030E04AEF54E46B817C818D81AC
:101B80009E810E940D11DC01CB018F839887A9876C
:101B9000BA8720E030E040E85FE36F81788589858F
:101BA0009A850E94871088232CF481E090E09C871E
:101BB0008B873FC020E03FEF4FE757E46F81788588
:101BC00089859A850E94081118164CF520E030E0AE
:101BD00040E251E46B817C818D819E810E940D11D8
:101BE000DC01CB01BC01CD010E948C10DC01CB01DA
:101BF0009C878B870FC088EC90E09E878D878D85B2
:101C00009E850197F1F79E878D878B859C8501972F
:101C10009C878B878B859C85892B69F714C06F8186
:101C2000788589859A850E948C10DC01CB019C8780
:101C30008B878B859C85988B8F878F85988901975B
:101C4000F1F7988B8F878A81882F90E09E012B5D1A
:101C50003F4F820F931FFC0160818A81882F90E0A3
:101C60009E012F5D3F4F820F931FFC012081CE010B
:101C7000C196AC01822F0E94F50489A9882389F5B9
:101C80008A81282F30E08981882F90E0220F331F2E
:101C9000220F331FAE014F5F5F4F240F351F820F9E
:101CA000931F4096FC0120818AA99BA9FC012083F7
:101CB0008981882F90E09E01235D3F4F820F931F03
:101CC000FC0150818981882F90E09E01275D3F4F64
:101CD000820F931FFC01808141E0652F0E94FE036B
:101CE00028C08A818F5F8A838A81843008F41BCF61
:101CF0008981882F90E09E01235D3F4F820F931FC3
:101D0000FC0150818981882F90E09E01275D3F4F23
:101D1000820F931FFC01808141E0652F0E94FE032A
:101D200089818F5F89838981843008F4E2CE01C084
:101D30000000E3960FB6F894DEBF0FBECDBFDF9173
:101D4000CF910895CF93DF9300D0CDB7DEB79A83BC
:101D5000898389819A81892B89F189819A81FC0102
:101D60008081882369F489819A81FC01228189819B
:101D70009A81FC01818141E0622F0E949A021EC07B
:101D800089819A81FC0180818130C1F489819A81A5
:101D9000FC01228189819A81FC01818141E0622FCD
:101DA0000E949A0289819A81FC01248189819A8109
:101DB000FC01838141E0622F0E949A0200000F9093
:101DC0000F90DF91CF910895CF93DF9300D0CDB7DF
:101DD000DEB79A83898389819A81892B91F08981E1
:101DE0009A81FC018081882361F489819A81FC01B8
:101DF000228189819A81FC01818141E0622F0E94C8
:101E0000FE0300000F900F90DF91CF910895CF93C4
:101E1000DF9300D0CDB7DEB79A83898389819A8119
:101E2000892B89F189819A81FC018081882369F459
:101E300089819A81FC01228189819A81FC018181B9
:101E400040E0622F0E94FE031EC089819A81FC013E
:101E500080818130C1F489819A81FC01228189814C
:101E60009A81FC01818140E0622F0E94FE038981FA
:101E70009A81FC01248189819A81FC01838140E05F
:101E8000622F0E94FE0300000F900F90DF91CF9110
:101E90000895CF93DF9300D0CDB7DEB79A838983BF
:101EA00089819A81892BF1F089819A81FC01808155
:101EB0008130C1F489819A81FC01228189819A81D2
:101EC000FC01818141E0622F0E94FE0389819A8199
:101ED000FC01248189819A81FC01838140E0622F89
:101EE0000E94FE0300000F900F90DF91CF910895A4
:101EF000CF93DF9300D0CDB7DEB79A8389838981F2
:101F00009A81892BF1F089819A81FC01808181304D
:101F1000C1F489819A81FC01228189819A81FC0125
:101F2000818140E0622F0E94FE0389819A81FC0139
:101F3000248189819A81FC01838141E0622F0E9482
:101F4000FE0300000F900F90DF91CF910895CF9383
:101F5000DF93CDB7DEB78091890090918A00A09180
:101F60008B00B0918C000196A11DB11D809389005A
:101F700090938A00A0938B00B0938C000000DF91B7
:101F8000CF910895EF92FF920F931F93CF93DF931A
:101F9000CDB7DEB728970FB6F894DEBF0FBECDBF22
:101FA00060E081E00E94C90761E081E00E94C9070A
:101FB00087EA9FE00E947B000E9449000E94F60091
:101FC00019821A821B821C821D821E821F82188621
:101FD0002091890030918A0040918B0050918C00B3
:101FE00089819A81AB81BC8179018A01E81AF90A59
:101FF0000A0B1B0BD801C7010397A105B10580F09F
:1020000060E081E00E9427088091890090918A0019
:10201000A0918B00B0918C0089839A83AB83BC83A1
:102020002091890030918A0040918B0050918C0062
:102030008D819E81AF81B88579018A01E81AF90AFC
:102040000A0B1B0BD801C7014497A105B10508F481
:10205000BFCF61E081E00E942708809189009091C4
:102060008A00A0918B00B0918C008D839E83AF83FA
:10207000B887AECFCF93DF93CDB7DEB764E081E012
:102080000E9427080000DF91CF910895052E97FB4D
:102090001EF400940E945D1057FD07D00E94651049
:1020A00007FC03D04EF40C945D105095409530958C
:1020B00021953F4F4F4F5F4F0895909580957095B4
:1020C00061957F4F8F4F9F4F0895A1E21A2EAA1B53
:1020D000BB1BFD010DC0AA1FBB1FEE1FFF1FA217D8
:1020E000B307E407F50720F0A21BB30BE40BF50BD5
:1020F000661F771F881F991F1A9469F7609570955E
:10210000809590959B01AC01BD01CF0108950E947F
:10211000BB1008F481E008950E94E71088F09F57F3
:1021200098F0B92F9927B751B0F0E1F0660F771FFB
:10213000881F991F1AF0BA95C9F714C0B13091F0F1
:102140000E940111B1E008950C940111672F782FBE
:102150008827B85F39F0B93FCCF3869577956795B6
:10216000B395D9F73EF490958095709561957F4F22
:102170008F4F9F4F0895990F0008550FAA0BE0E865
:10218000FEEF16161706E807F907C0F01216130639
:10219000E407F50798F0621B730B840B950B39F479
:1021A0000A2661F0232B242B252B21F408950A26DF
:1021B00009F4A140A6958FEF811D811D089557FD5B
:1021C0009058440F551F59F05F3F71F04795880FA5
:1021D00097FB991F61F09F3F79F08795089512163C
:1021E00013061406551FF2CF4695F1DF08C01616E8
:1021F00017061806991FF1CF869571056105089499
:102200000895E894BB2766277727CB0197F90895AF
:102210000E94BB1008F48FEF08950E9420110C94C7
:1022200091110E94831138F00E948A1120F09523A9
:1022300011F00C947A110C94801111240C94021159
:102240000E94DF1070F3959FC1F3950F50E0551F6A
:10225000629FF001729FBB27F00DB11D639FAA27FB
:10226000F00DB11DAA1F649F6627B00DA11D661F4A
:10227000829F2227B00DA11D621F739FB00DA11D6B
:10228000621F839FA00D611D221F749F3327A00D25
:10229000611D231F849F600D211D822F762F6A2FC1
:1022A00011249F5750409AF0F1F088234AF0EE0F26
:1022B000FF1FBB1F661F771F881F91505040A9F753
:1022C0009E3F510580F00C947A110C9402115F3FEF
:1022D000E4F3983ED4F3869577956795B795F7958F
:1022E000E7959F5FC1F7FE2B880F911D9695879507
:1022F00097F9089597F99F6780E870E060E0089586
:102300009FEF80EC089500240A941616170618060D
:102310000906089500240A941216130614060506E9
:102320000895092E0394000C11F4882352F0BB0F7A
:1023300040F4BF2B11F460FF04C06F5F7F4F8F4FDD
:082340009F4F0895F894FFCFB0
:102348002C00C0F9A4B0999282F880903132332BD6
:0C2358003435362D3738392A4330452FF4
:00000001FF
