:100000000C942A000C9447000C9447000C94470071
:100010000C9447000C9447000C9447000C94470044
:100020000C9447000C9447000C9447000C94470034
:100030000C9447000C9447000C9447000C94470024
:100040000C9447000C9447000C9447000C94470014
:100050000C94470011241FBECFE5D8E0DEBFCDBF12
:1000600010E0A0E6B0E0E0E1F6E002C005900D92FD
:10007000AA36B107D9F720E0AAE6B0E001C01D9288
:10008000AB36B207E1F70E94C5010C9406030C944D
:100090000000CF93DF931F92CDB7DEB789838981AC
:1000A000882351F485E390E0FC01208185E390E012
:1000B0002E7FFC0120830CC08981813049F485E3C7
:1000C00090E0FC01208185E390E02160FC01208329
:1000D00000000F90DF91CF910895CF93DF931F928F
:1000E000CDB7DEB7898380916A00282F30E08BE39B
:1000F00090E0205A3F4FF9012081FC012083898143
:100100008823B9F480916A008F5F80936A008091A0
:100110006A008A3010F010926A0080916A00282FDD
:1001200030E08BE390E0205A3F4FF9012081FC0141
:10013000208300000F90DF91CF910895CF93DF933C
:10014000CDB7DEB72F970FB6F894DEBF0FBECDBF89
:100150008F878F85882309F07DC082E390E0FC01C2
:10016000308182E390E021E02327FC01208380E0BE
:1001700090E0AAEFB3E489839A83AB83BC8320E049
:1001800030E04AEF54E469817A818B819C810E943E
:100190007102DC01CB018D839E83AF83B88720E0A1
:1001A00030E040E85FE36D817E818F8198850E9419
:1001B000EB0188232CF481E090E09A8789873FC087
:1001C00020E03FEF4FE757E46D817E818F81988576
:1001D0000E946C0218164CF520E030E040E251E439
:1001E00069817A818B819C810E947102DC01CB0143
:1001F000BC01CD010E94F001DC01CB019A87898707
:100200000FC088EC90E09C878B878B859C8501973D
:10021000F1F79C878B8789859A8501979A878987CB
:1002200089859A85892B69F721C06D817E818F81AF
:1002300098850E94F001DC01CB019A878987898526
:100240009A859E878D878D859E850197F1F79E877C
:100250008D870CC08F85813049F482E390E0FC01EA
:10026000208182E390E02E7FFC01208300002F9606
:100270000FB6F894DEBF0FBECDBFDF91CF910895CA
:10028000CF93DF931F92CDB7DEB789838981813009
:1002900031F486E390E0FC018081817015C0898192
:1002A000823031F486E390E0FC0180818FEF0CC056
:1002B0008981833041F486E390E0FC01808186955A
:1002C0008695817001C08FEF0F90DF91CF910895D7
:1002D000CF93DF93CDB7DEB787E390E0FC012081B9
:1002E00087E390E02E7FFC01208387E390E0FC0110
:1002F000208187E390E02D7FFC01208387E390E05D
:10030000FC01208187E390E02B7FFC01208388E3C0
:1003100090E0FC01208188E390E02160FC012083D3
:1003200088E390E0FC01208188E390E02260FC01FA
:10033000208388E390E0FC01208188E390E0246042
:10034000FC0120830000DF91CF910895CF93DF93CC
:10035000CDB7DEB784E390E0FC01208184E390E038
:100360002160FC01208381E390E0FC01208181E396
:1003700090E02160FC0120838AE390E02FEFFC01F4
:1003800020830000DF91CF910895CF93DF9300D0B9
:100390001F92CDB7DEB70E9468010E94A60181E0DE
:1003A000898381E08A8381E08B8381E00E94400120
:1003B000898382E00E9440018A8383E00E94400199
:1003C0008B8389810E9449008B810E949E008A81D3
:1003D0000E946D00EACF0E941F0208F481E0089598
:1003E0000E944B0288F09F5798F0B92F9927B75178
:1003F000B0F0E1F0660F771F881F991F1AF0BA95C9
:10040000C9F714C0B13091F00E946502B1E00895BF
:100410000C946502672F782F8827B85F39F0B93FB1
:10042000CCF3869577956795B395D9F73EF490957B
:100430008095709561957F4F8F4F9F4F0895990FCD
:100440000008550FAA0BE0E8FEEF16161706E8079E
:10045000F907C0F012161306E407F50798F0621BBF
:10046000730B840B950B39F40A2661F0232B242B94
:10047000252B21F408950A2609F4A140A6958FEFB3
:10048000811D811D089557FD9058440F551F59F047
:100490005F3F71F04795880F97FB991F61F09F3F71
:1004A00079F087950895121613061406551FF2CF9A
:1004B0004695F1DF08C0161617061806991FF1CFEA
:1004C00086957105610508940895E894BB27662711
:1004D0007727CB0197F908950E941F0208F48FEF48
:1004E00008950E9484020C94F5020E94E70238F0FD
:1004F0000E94EE0220F0952311F00C94DE020C9481
:10050000E40211240C9466020E94430270F3959F4A
:10051000C1F3950F50E0551F629FF001729FBB27FA
:10052000F00DB11D639FAA27F00DB11DAA1F649F96
:100530006627B00DA11D661F829F2227B00DA11D49
:10054000621F739FB00DA11D621F839FA00D611DCF
:10055000221F749F3327A00D611D231F849F600DF0
:10056000211D822F762F6A2F11249F5750409AF019
:10057000F1F088234AF0EE0FFF1FBB1F661F771FA5
:10058000881F91505040A9F79E3F510580F00C9470
:10059000DE020C9466025F3FE4F3983ED4F3869546
:1005A00077956795B795F795E7959F5FC1F7FE2B10
:1005B000880F911D9695879597F9089597F99F67EC
:1005C00080E870E060E008959FEF80EC08950024DB
:1005D0000A941616170618060906089500240A94A8
:1005E00012161306140605060895092E0394000C2E
:1005F00011F4882352F0BB0F40F4BF2B11F460FFBD
:1006000004C06F5F7F4F8F4F9F4F0895F894FFCFC7
:0A061000C0FCA4B0999282B880905B
:00000001FF
