:100000000C942A000C943F000C943F000C943F0089
:100010000C943F000C943F000C943F000C943F0064
:100020000C943F000C943F000C943F000C943F0054
:100030000C943F000C943F000C943F000C943F0044
:100040000C943F000C943F000C943F000C943F0034
:100050000C943F0011241FBECFE5D8E0DEBFCDBF1A
:1000600010E0A0E6B0E0E4E9FAE002C005900D92ED
:10007000A238B107D9F70E94E6040C9448050C9405
:100080000000AF92BF92CF92DF92EF92FF920F9358
:100090001F93CF93DF93CDB7DEB760970FB6F89479
:1000A000DEBF0FBECDBF82E08D878E878F87888BA6
:1000B000198691E09A878B8793E09C878D838E8346
:1000C0008F83888784E0898385E08A8386E08B83B9
:1000D00087E08C837E018AE0E80EF11C6E01EEE081
:1000E000CE0ED11C5E01FDE0AF0EB11C02E010E0AF
:1000F00040E0612F802F0E94480341E0612F802F54
:100100000E94E404EA14FB0439F0F70111917F0125
:10011000F60101916F01ECCF7E0182E0E80EF11C47
:100120005E01E5E0AE0EB11C6E01F6E0CF0ED11C13
:1001300002E014E041E0612F802F0E94480341E07B
:10014000612F802F0E94E203EA14FB0439F0F701CB
:1001500011917F01F60101916F01ECCF60960FB60E
:10016000F894DEBF0FBECDBFDF91CF911F910F91ED
:10017000FF90EF90DF90CF90BF90AF9008952F92B7
:100180003F924F925F926F927F928F929F92AF9227
:10019000BF92CF92DF92EF92FF920F931F93CF9374
:1001A000DF93CDB7DEB7A1970FB6F894DEBF0FBED1
:1001B000CDBF009709F481C06C0180E1E0E6F0E07A
:1001C000DE01119601900D928A95E1F782E08D8F04
:1001D0008E8F8F8F88A3198E91E09A8F8B8F23E05B
:1001E0002C8F8D8B8E8B8F8B888F84E0898B85E015
:1001F0008A8B86E08B8B87E08C8B8FEFF601808378
:1002000099A34E01F2E18F0E911C5E0126E1A20E30
:10021000B11C22E0622E34E0532E712C40E0652D9B
:10022000862D0E94E203CE014A967C018E01025E79
:100230001F4F92E0292E312C412CAE014F5D5F4FB4
:10024000632D822D0E94550489A1882361F0439477
:10025000F4E04F1609F44AC0F70131907F01F8012C
:1002600021908F01EACF9FEFE0E7F2E09150E0406C
:10027000F040E1F700C00000AE014F5D5F4F632D1D
:10028000822D0E94550489A18111E1CF242D30E0F7
:10029000220F331F220F331F81E090E08C0F9D1F30
:1002A000280F391FF901E70DF11D8081F6018083C8
:1002B00041E0652D862D0E94E203A1960FB6F894C9
:1002C000DEBF0FBECDBFDF91CF911F910F91FF9089
:1002D000EF90DF90CF90BF90AF909F908F907F90E6
:1002E0006F905F904F903F902F90089541E0652D63
:1002F000862D0E94E2037394F4E07F16F1F2F4017C
:1003000051904F01F50161905F0188CFCF93C82FC5
:1003100040E060E081E00E94E20340E061E081E0D3
:100320000E94E2036C2F83E00E94CF0341E062E071
:1003300081E00E94E2038FEC97E00197F1F700C0A3
:10034000000040E062E081E0CF910C94E20341E0E4
:1003500060E081E00E94480341E061E081E00E94AA
:10036000480341E062E081E00E9448036FEF83E0D0
:100370000E94BC032FEB8AED90E02150804090401A
:10038000E1F700C0000088E30E9486018FEC97E04F
:100390000197F1F700C000008CE00E9486018FEC0D
:1003A00097E00197F1F700C0000081E00E9486010C
:1003B0008FE99FE00197F1F700C0000086E00C9400
:1003C0008601CF93C82F41E060E081E00E94E20304
:1003D00040E061E081E00E94E2036C2F83E00E9434
:1003E000CF0341E062E081E00E94E2038FEC97E0FE
:1003F0000197F1F700C0000040E062E081E0CF919A
:100400000C94E2030F931F93CF93FC01892B71F09F
:100410008081882359F08F01C0E00E94E101CF5F05
:10042000F801EC0FF11D80818111F7CFCF911F9161
:100430000F910895882351F0813019F080E80C94D1
:10044000860180E4860F80680C948601862F806880
:100450000C9486010F931F93CF93DF93009711F0B5
:10046000693028F0DF91CF911F910F910895EC0131
:10047000862F880F880F880F80640E9486018E0166
:10048000085F1F4F89910E94E101C017D107D1F782
:1004900080E8DF91CF911F910F910C9486012F92EC
:1004A0003F924F925F927F928F929F92AF92BF92B4
:1004B000CF92DF92EF92FF920F931F93CF93DF9330
:1004C000CDB7DEB72A970FB6F894DEBF0FBECDBF0B
:1004D0006B017C018E010F5F1F4F8AE0F8011192C2
:1004E0008A95E9F7C114D104E104F10409F450C07C
:1004F000F7FC68C0712C8AE0282E312C412C512C3D
:1005000001C0782EA72CB12C48018A0C9B1CC70176
:10051000B601A20191010E940705605DF4016083AC
:1005200069017A0181E0870DC114D104E104F1046D
:1005300041F777FC15C0872D770C990B7C01FFEFF5
:10054000EF1AFF0AE00EF11E8A199B09080F191F06
:10055000F70182917F010E94E1010E151F05C1F78D
:100560002A960FB6F894DEBF0FBECDBFDF91CF91B4
:100570001F910F91FF90EF90DF90CF90BF90AF90C1
:100580009F908F907F905F904F903F902F90089515
:1005900080E32A960FB6F894DEBF0FBECDBFDF9181
:1005A000CF911F910F91FF90EF90DF90CF90BF9070
:1005B000AF909F908F907F905F904F903F902F9043
:1005C0000C94E1018DE20E94E101F094E094D0945A
:1005D000C094C11CD11CE11CF11C8CCF41E00C94D7
:1005E00048031F93CF93DF93D82F162FC42F40E0DB
:1005F00063E082E00E94E203C13079F0C11105C0DE
:1006000040E0612F8D2F0E94E20341E063E082E031
:10061000DF91CF911F910C94E20341E0612F8D2F68
:100620000E94E20341E063E082E0DF91CF911F91FD
:100630000C94E203413029F04111089541E00C94FB
:10064000E20340E00C94E2030C949404813039F00E
:10065000823009F008956FEF83E00C94BC036FEFD4
:100660000C94BC036A3020F4813059F0823009F0D8
:100670000895E62FF0E0E059FF4F608183E00C948D
:10068000CF03E62FF0E0E059FF4F60810C94CF03D9
:100690006830B8F44130B1F0411113C0823009F430
:1006A00041C018F1833009F448C08430C1F521B34A
:1006B00081E090E001C0880F6A95EAF78095822377
:1006C00081BB0895823009F44DC0E0F0833009F415
:1006D0003FC0843031F581B321E030E001C0220F0A
:1006E0006A95EAF7822B81BB08958130B9F42AB369
:1006F00081E090E001C0880F6A95EAF78095822337
:100700008ABB0895813061F48AB321E030E001C0F2
:10071000220F6A95EAF7822B8ABB089508950895FF
:100720000895089527B381E090E001C0880F6A958D
:10073000EAF78095822387BB089524B381E090E097
:1007400001C0880F6A95EAF78095822384BB0895DB
:1007500084B321E030E001C0220F6A95EAF7822BD2
:1007600084BB089587B321E030E001C0220F6A9571
:10077000EAF7822B87BB0895823069F040F083301E
:1007800021F0843051F461BB089564BB0895813039
:1007900029F46ABB089567BB0895089508958230CF
:1007A00069F040F0833021F0843051F462BB089549
:1007B00065BB0895813029F46BBB089568BB08952B
:1007C00008950895683048F5411113C0823099F1B9
:1007D00028F18330D9F1843009F059C022B381E087
:1007E00090E001C0880F6A95EAF78095822382BB6A
:1007F0000895413091F4823009F44BC0E0F1833028
:1008000081F1843009F050C082B321E030E001C0B2
:10081000220F6A95EAF7822B82BB08958130C1F5D9
:100820002BB381E090E001C0880F6A95EAF78095CC
:1008300082238BBB089528B381E090E001C0880F2C
:100840006A95EAF78095822388BB089525B381E0F5
:1008500090E001C0880F6A95EAF78095822385BBF6
:10086000089585B321E030E001C0220F6A95EAF7D0
:10087000822B85BB08958130B1F48BB321E030E049
:1008800001C0220F6A95EAF7822B8BBB0895089569
:10089000089588B321E030E001C0220F6A95EAF79D
:1008A000822B88BB0895089508954115510599F04C
:1008B000683088F48230A1F078F0833099F0843089
:1008C00099F480B390E002C0959587956A95E2F718
:1008D0008170FA0180830895813039F489B3F2CFB1
:1008E00086B3F0CF83B3EECF0895089561157105F7
:1008F00051F08230A9F040F0833071F0843051F42F
:1009000080B3FB0180830895813029F489B3FB0112
:10091000808308950895089583B3FB01808308952B
:1009200086B3FB0180830895683080F48230C9F07B
:1009300010F1833061F0843051F582B321E030E072
:1009400001C0220F6A95EAF7822782BB089585B31A
:1009500021E030E001C0220F6A95EAF7822785BBCB
:10096000089588B321E030E001C0220F6A95EAF7CC
:10097000822788BB0895813059F48BB321E030E0A1
:1009800001C0220F6A95EAF782278BBB089508956C
:100990000895823099F060F0833031F0843091F422
:1009A00082B3809582BB089585B3809585BB0895F9
:1009B000813049F48BB380958BBB089588B38095C3
:1009C00088BB0895089508950C94E203CF93DF93B4
:1009D0001F92CDB7DEB70E9441000E94A7018AE7AF
:1009E00090E00E9402022FEF89E698E121508040BA
:1009F0009040E1F700C000001982CE0101960E94EC
:100A0000BF0089818F3FC9F30E94E101F6CF052E17
:100A100097FB1EF400940E941E0557FD07D00E940C
:100A2000260507FC03D04EF40C941E055095409506
:100A3000309521953F4F4F4F5F4F0895909580958A
:100A4000709561957F4F8F4F9F4F0895A1E21A2EA9
:100A5000AA1BBB1BFD010DC0AA1FBB1FEE1FFF1F62
:100A6000A217B307E407F50720F0A21BB30BE40BB2
:100A7000F50B661F771F881F991F1A9469F76095F9
:100A80007095809590959B01AC01BD01CF010895B3
:040A9000F894FFCF08
:100A94003132332B3435362D3738392A4330452F0C
:100AA400C0F9A4B0999282F8809057656C636F6D19
:020AB4006500DB
:00000001FF
