:100000000C942A000C943F000C943F000C943F0089
:100010000C943F000C943F000C943F000C943F0064
:100020000C943F000C943F000C943F000C943F0054
:100030000C943F000C943F000C943F000C943F0044
:100040000C943F000C943F000C943F000C943F0034
:100050000C943F0011241FBECFE5D8E0DEBFCDBF1A
:1000600010E0A0E6B0E0ECEDF5E002C005900D92E6
:10007000A437B107D9F70E94DD020C94EC020C946E
:100080000000CF93C82F40E060E081E00E94D901DA
:1000900040E061E081E00E94D9016C2F83E00E9482
:1000A000C60141E062E081E00E94D9018FEC97E057
:1000B0000197F1F700C0000040E062E081E0CF91DD
:1000C0000C94D90141E060E081E00E943F0141E0F1
:1000D00061E081E00E943F0141E062E081E00E9436
:1000E0003F016FEF83E00E94B3012FEB8AED90E0B8
:1000F000215080409040E1F700C0000088E30E945A
:1001000041008FEC97E00197F1F700C000008CE010
:100110000E9441008FEC97E00197F1F700C00000CA
:1001200081E00E9441008FE99FE00197F1F700C054
:10013000000086E00C944100CF93C82F41E060E0BE
:1001400081E00E94D90140E061E081E00E94D90194
:100150006C2F83E00E94C60141E062E081E00E94D2
:10016000D9018FEC97E00197F1F700C0000040E063
:1001700062E081E0CF910C94D9010F931F93CF934C
:10018000FC01892B71F08081882359F08F01C0E038
:100190000E949C00CF5FF801EC0FF11D808181115E
:1001A000F7CFCF911F910F910895882351F081309F
:1001B00019F080E80C94410080E4860F80680C946C
:1001C0004100862F80680C94410041E00C943F016F
:1001D0001F93CF93DF93D82F162FC42F40E063E0F7
:1001E00082E00E94D901C13079F0C11105C040E020
:1001F000612F8D2F0E94D90141E063E082E0DF9101
:10020000CF911F910C94D90141E0612F8D2F0E9455
:10021000D90141E063E082E0DF91CF911F910C941E
:10022000D901413029F04111089541E00C94D901E0
:1002300040E00C94D9010C948B02813039F082306B
:1002400009F008956FEF83E00C94B3016FEF0C9405
:10025000B3016A3020F4813059F0823009F00895FA
:10026000E62FF0E0E05AFF4F608183E00C94C60176
:10027000E62FF0E0E05AFF4F60810C94C601683031
:10028000B8F44130B1F0411113C0823009F441C0DB
:1002900018F1833009F448C08430C1F521B381E0FE
:1002A00090E001C0880F6A95EAF78095822381BBB0
:1002B0000895823009F44DC0E0F0833009F43FC066
:1002C000843031F581B321E030E001C0220F6A951E
:1002D000EAF7822B81BB08958130B9F42AB381E01B
:1002E00090E001C0880F6A95EAF7809582238ABB67
:1002F0000895813061F48AB321E030E001C0220F1B
:100300006A95EAF7822B8ABB0895089508950895A7
:10031000089527B381E090E001C0880F6A95EAF75D
:100320008095822387BB089524B381E090E001C0CB
:10033000880F6A95EAF78095822384BB089584B379
:1003400021E030E001C0220F6A95EAF7822B84BBDE
:10035000089587B321E030E001C0220F6A95EAF7E3
:10036000822B87BB0895823069F040F0833021F002
:10037000843051F461BB089564BB0895813029F441
:100380006ABB089567BB089508950895823069F0A7
:1003900040F0833021F0843051F462BB089565BB96
:1003A0000895813029F46BBB089568BB08950895C2
:1003B0000895683048F5411113C0823099F128F151
:1003C0008330D9F1843009F059C022B381E090E044
:1003D00001C0880F6A95EAF78095822382BB089551
:1003E000413091F4823009F44BC0E0F1833081F167
:1003F000843009F050C082B321E030E001C0220F08
:100400006A95EAF7822B82BB08958130C1F52BB340
:1004100081E090E001C0880F6A95EAF78095822319
:100420008BBB089528B381E090E001C0880F6A95E6
:10043000EAF78095822388BB089525B381E090E098
:1004400001C0880F6A95EAF78095822385BB0895DD
:1004500085B321E030E001C0220F6A95EAF7822BD4
:1004600085BB08958130B1F48BB321E030E001C049
:10047000220F6A95EAF7822B8BBB089508950895A1
:1004800088B321E030E001C0220F6A95EAF7822BA1
:1004900088BB0895089508954115510599F0683075
:1004A00088F48230A1F078F0833099F0843099F4A8
:1004B00080B390E002C0959587956A95E2F78170C8
:1004C000FA0180830895813039F489B3F2CF86B37D
:1004D000F0CF83B3EECF089508956115710551F003
:1004E0008230A9F040F0833071F0843051F480B351
:1004F000FB0180830895813029F489B3FB01808357
:1005000008950895089583B3FB018083089586B309
:10051000FB0180830895683080F48230C9F010F1C7
:10052000833061F0843051F582B321E030E001C0C6
:10053000220F6A95EAF7822782BB089585B321E0EE
:1005400030E001C0220F6A95EAF7822785BB089543
:1005500088B321E030E001C0220F6A95EAF78227D4
:1005600088BB0895813059F48BB321E030E001C09D
:10057000220F6A95EAF782278BBB089508950895A4
:10058000823099F060F0833031F0843091F482B39E
:10059000809582BB089585B3809585BB0895813091
:1005A00049F48BB380958BBB089588B3809588BB45
:1005B0000895089508950C94D9010E9462008AE676
:1005C00090E00E94BD0065E081E00E94D5008FE6CA
:0C05D00090E00E94BD00FFCFF894FFCF28
:1005DC00C0F9A4B0999282F880904F6D6172004975
:0405EC004D5400006A
:00000001FF
