:100000000C942A000C943F000C943F000C943F0089
:100010000C943F000C943F000C943F000C943F0064
:100020000C943F000C943F000C943F000C943F0054
:100030000C943F000C943F000C943F000C943F0044
:100040000C943F000C943F000C943F000C943F0034
:100050000C943F0011241FBECFE5D8E0DEBFCDBF1A
:1000600010E0A0E6B0E0E6E1FCE002C005900D92F1
:10007000A038B107D9F70E9463050C9409060C94C7
:100080000000CF93DF93009731F0FC012081222301
:1000900029F0213051F0DF91CF91089541E0628144
:1000A0008181DF91CF910C94C503EC0141E0628125
:1000B00081810E94C50341E06C818B81DF91CF91EA
:1000C0000C94C503009719F0FC01208121110895BB
:1000D00041E0628181810C945F04CF93DF930097AC
:1000E00031F0FC012081222329F0213051F0DF91F1
:1000F000CF91089540E062818181DF91CF910C948E
:100100005F04EC0140E0628181810E945F0440E075
:100110006C818B81DF91CF910C945F04CF93DF933F
:10012000009721F0FC012081213019F0DF91CF915F
:100130000895EC0141E0628181810E945F0440E00A
:100140006C818B81DF91CF910C945F04CF93DF930F
:10015000009721F0FC012081213019F0DF91CF912F
:100160000895EC0140E0628181810E945F0441E0DA
:100170006C818B81DF91CF910C945F04AF92BF9221
:10018000CF92DF92EF92FF920F931F93CF93DF9363
:10019000CDB7DEB760970FB6F894DEBF0FBECDBF08
:1001A00082E08D878E878F87888B198691E09A876A
:1001B0008B8793E09C878D838E838F83888784E0F1
:1001C000898385E08A8386E08B8387E08C837E0148
:1001D0008AE0E80EF11C6E01EEE0CE0ED11C5E014D
:1001E000FDE0AF0EB11C02E010E040E0612F802F77
:1001F0000E94C50341E0612F802F0E946105EA142F
:10020000FB0439F0F70111917F01F60101916F01B3
:10021000ECCF7E0182E0E80EF11C5E01E5E0AE0E5F
:10022000B11C6E01F6E0CF0ED11C02E014E041E0FB
:10023000612F802F0E94C50341E0612F802F0E9413
:100240005F04EA14FB0439F0F70111917F01F60114
:1002500001916F01ECCF60960FB6F894DEBF0FBE30
:10026000CDBFDF91CF911F910F91FF90EF90DF9065
:10027000CF90BF90AF9008952F923F924F925F9290
:100280006F927F928F929F92AF92BF92CF92DF92A6
:10029000EF92FF920F931F93CF93DF93CDB7DEB70B
:1002A000A1970FB6F894DEBF0FBECDBF009709F43B
:1002B00081C06C0180E1E0E6F0E0DE011196019082
:1002C0000D928A95E1F782E08D8F8E8F8F8F88A3B4
:1002D000198E91E09A8F8B8F23E02C8F8D8B8E8BD4
:1002E0008F8B888F84E0898B85E08A8B86E08B8B6F
:1002F00087E08C8B8FEFF601808399A34E01F2E1AA
:100300008F0E911C5E0126E1A20EB11C22E0622E2E
:1003100034E0532E712C40E0652D862D0E945F0441
:10032000CE014A967C018E01025E1F4F92E0292E7B
:10033000312C412CAE014F5D5F4F632D822D0E9409
:10034000D20489A1882361F04394F4E04F1609F4A4
:100350004AC0F70131907F01F80121908F01EACF67
:100360009FEFE0E7F2E09150E040F040E1F700C09D
:100370000000AE014F5D5F4F632D822D0E94D204BD
:1003800089A18111E1CF242D30E0220F331F220FEC
:10039000331F81E090E08C0F9D1F280F391FF9015A
:1003A000E70DF11D8081F601808341E0652D862DEA
:1003B0000E945F04A1960FB6F894DEBF0FBECDBFBA
:1003C000DF91CF911F910F91FF90EF90DF90CF9031
:1003D000BF90AF909F908F907F906F905F904F9065
:1003E0003F902F90089541E0652D862D0E945F0477
:1003F0007394F4E07F16F1F2F40151904F01F5018E
:1004000061905F0188CFCF93C82F40E060E081E02A
:100410000E945F0440E061E081E00E945F046C2F75
:1004200083E00E944C0441E062E081E00E945F04AE
:100430008FEC97E00197F1F700C0000040E062E028
:1004400081E0CF910C945F0441E060E081E00E9484
:10045000C50341E061E081E00E94C50341E062E044
:1004600081E00E94C5036FEF83E00E9439042FEB07
:100470008AED90E0215080409040E1F700C00000FC
:1004800088E30E9403028FEC97E00197F1F700C028
:1004900000008CE00E9403028FEC97E00197F1F7D7
:1004A00000C0000081E00E9403028FE99FE00197F5
:1004B000F1F700C0000086E00C940302CF93C82F30
:1004C00041E060E081E00E945F0440E061E081E0A3
:1004D0000E945F046C2F83E00E944C0441E062E0C4
:1004E00081E00E945F048FEC97E00197F1F700C074
:1004F000000040E062E081E0CF910C945F040F9334
:100500001F93CF93FC01892B71F08081882359F0D0
:100510008F01C0E00E945E02CF5FF801EC0FF11D79
:1005200080818111F7CFCF911F910F91089588237A
:1005300051F0813019F080E80C94030280E4860FBA
:1005400080680C940302862F80680C9403020F933A
:100550001F93CF93DF93009711F0693028F0DF915C
:10056000CF911F910F910895EC01862F880F880F6E
:10057000880F80640E9403028E01085F1F4F8991DB
:100580000E945E02C017D107D1F780E8DF91CF91BA
:100590001F910F910C9403022F923F924F925F9202
:1005A0007F928F929F92AF92BF92CF92DF92EF9203
:1005B000FF920F931F93CF93DF93CDB7DEB72A97A8
:1005C0000FB6F894DEBF0FBECDBF6B017C018E016C
:1005D0000F5F1F4F8AE0F80111928A95E9F7C11465
:1005E000D104E104F10409F450C0F7FC68C0712C97
:1005F0008AE0282E312C412C512C01C0782EA72CBA
:10060000B12C48018A0C9B1CC701B601A2019101C3
:100610000E94C805605DF401608369017A0181E090
:10062000870DC114D104E104F10441F777FC15C032
:10063000872D770C990B7C01FFEFEF1AFF0AE00E74
:10064000F11E8A199B09080F191FF70182917F017A
:100650000E945E020E151F05C1F72A960FB6F89488
:10066000DEBF0FBECDBFDF91CF911F910F91FF90E5
:10067000EF90DF90CF90BF90AF909F908F907F9042
:100680005F904F903F902F90089580E32A960FB689
:10069000F894DEBF0FBECDBFDF91CF911F910F91B8
:1006A000FF90EF90DF90CF90BF90AF909F908F9092
:1006B0007F905F904F903F902F900C945E028DE260
:1006C0000E945E02F094E094D094C094C11CD11CAE
:1006D000E11CF11C8CCF41E00C94C5031F93CF9318
:1006E000DF93D82F162FC42F40E063E082E00E94F2
:1006F0005F04C13079F0C11105C040E0612F8D2F3A
:100700000E945F0441E063E082E0DF91CF911F919E
:100710000C945F0441E0612F8D2F0E945F0441E043
:1007200063E082E0DF91CF911F910C945F04413030
:1007300029F04111089541E00C945F0440E00C94CD
:100740005F040C941105813039F0823009F008956E
:100750006FEF83E00C9439046FEF0C9439046A3026
:1007600020F4813059F0823009F00895E62FF0E04E
:10077000E059FF4F608183E00C944C04E62FF0E0D9
:10078000E059FF4F60810C944C046830B8F441305C
:10079000B1F0411113C0823009F441C018F1833027
:1007A00009F448C08430C1F521B381E090E001C074
:1007B000880F6A95EAF78095822381BB089582307D
:1007C00009F44DC0E0F0833009F43FC0843031F5C6
:1007D00081B321E030E001C0220F6A95EAF7822B55
:1007E00081BB08958130B9F42AB381E090E001C063
:1007F000880F6A95EAF7809582238ABB0895813035
:1008000061F48AB321E030E001C0220F6A95EAF773
:10081000822B8ABB0895089508950895089527B3FB
:1008200081E090E001C0880F6A95EAF78095822305
:1008300087BB089524B381E090E001C0880F6A95DA
:10084000EAF78095822384BB089584B321E030E0E9
:1008500001C0220F6A95EAF7822B84BB089587B303
:1008600021E030E001C0220F6A95EAF7822B87BBB6
:100870000895823069F040F0833021F0843051F4E3
:1008800061BB089564BB0895813029F46ABB089563
:1008900067BB089508950895823069F040F0833071
:1008A00021F0843051F462BB089565BB0895813016
:1008B00029F46BBB089568BB0895089508956830C6
:1008C00048F5411113C0823099F128F18330D9F1F4
:1008D000843009F059C022B381E090E001C0880F54
:1008E0006A95EAF78095822382BB0895413091F49E
:1008F000823009F44BC0E0F1833081F1843009F09B
:1009000050C082B321E030E001C0220F6A95EAF7BF
:10091000822B82BB08958130C1F52BB381E090E03A
:1009200001C0880F6A95EAF7809582238BBB0895F2
:1009300028B381E090E001C0880F6A95EAF78095BE
:10094000822388BB089525B381E090E001C0880F21
:100950006A95EAF78095822385BB089585B321E0E7
:1009600030E001C0220F6A95EAF7822B85BB08951B
:100970008130B1F48BB321E030E001C0220F6A95E1
:10098000EAF7822B8BBB08950895089588B321E080
:1009900030E001C0220F6A95EAF7822B88BB0895E8
:1009A000089508954115510599F0683088F4823012
:1009B000A1F078F0833099F0843099F480B390E01E
:1009C00002C0959587956A95E2F78170FA01808358
:1009D0000895813039F489B3F2CF86B3F0CF83B371
:1009E000EECF089508956115710551F08230A9F098
:1009F00040F0833071F0843051F480B3FB01808388
:100A00000895813029F489B3FB0180830895089506
:100A1000089583B3FB018083089586B3FB0180832F
:100A20000895683080F48230C9F010F1833061F0AD
:100A3000843051F582B321E030E001C0220F6A9585
:100A4000EAF7822782BB089585B321E030E001C038
:100A5000220F6A95EAF7822785BB089588B321E0C3
:100A600030E001C0220F6A95EAF7822788BB08951B
:100A7000813059F48BB321E030E001C0220F6A9538
:100A8000EAF782278BBB089508950895823099F084
:100A900060F0833031F0843091F482B3809582BB72
:100AA000089585B3809585BB0895813049F48BB353
:100AB00080958BBB089588B3809588BB0895089571
:100AC00008950C945F04CF93DF93CDB7DEB72A97D8
:100AD0000FB6F894DEBF0FBECDBF85E08E010A5F72
:100AE0001F4FF801282F11922A95E9F791E09F8373
:100AF000EAE7F0E0DE01119601900D928A95E1F7A8
:100B0000C8010E944100CE0101960E944100C80127
:100B10000E946200CE0101960E948E008FEF91E14B
:100B2000EAE781509040E040E1F700C00000C801D2
:100B30000E946D00CE0101960E946D00FFEF21E141
:100B40008AE7F15020408040E1F700C00000C80172
:100B50000E946200CE0101960E94A6009FEFE1E193
:100B6000FAE79150E040F040E1F700C00000C80112
:100B70000E946D00CE0101960E946D002FEF81E171
:100B80009AE7215080409040E1F700C00000BFCFBD
:100B9000052E97FB1EF400940E94DF0557FD07D039
:100BA0000E94E70507FC03D04EF40C94DF05509536
:100BB0004095309521953F4F4F4F5F4F0895909549
:100BC0008095709561957F4F8F4F9F4F0895A1E25B
:100BD0001A2EAA1BBB1BFD010DC0AA1FBB1FEE1FB7
:100BE000FF1FA217B307E407F50720F0A21BB30B02
:100BF000E40BF50B661F771F881F991F1A9469F77E
:100C000060957095809590959B01AC01BD01CF01D9
:060C10000895F894FFCFE7
:100C16003132332B3435362D3738392A4330452F88
:100C2600C0F9A4B0999282F88090010400030600EE
:00000001FF
